{
    "_format": "hh-sol-artifact-1",
    "contractName": "ScoreBoard",
    "sourceName": "contracts/ScoreBoard.sol",
    "abi": [
        {
            "inputs": [],
            "stateMutability": "nonpayable",
            "type": "constructor"
        },
        {
            "anonymous": false,
            "inputs": [
                {
                    "indexed": true,
                    "internalType": "uint256",
                    "name": "tournamentId",
                    "type": "uint256"
                },
                {
                    "indexed": true,
                    "internalType": "address",
                    "name": "player",
                    "type": "address"
                },
                {
                    "indexed": false,
                    "internalType": "uint16",
                    "name": "score",
                    "type": "uint16"
                }
            ],
            "name": "ScoreStored",
            "type": "event"
        },
        {
            "inputs": [
                {
                    "internalType": "uint256",
                    "name": "tournamentId",
                    "type": "uint256"
                },
                {
                    "internalType": "address",
                    "name": "player",
                    "type": "address"
                }
            ],
            "name": "getScore",
            "outputs": [
                {
                    "internalType": "uint16",
                    "name": "",
                    "type": "uint16"
                }
            ],
            "stateMutability": "view",
            "type": "function"
        },
        {
            "inputs": [
                {
                    "internalType": "uint256",
                    "name": "tournamentId",
                    "type": "uint256"
                }
            ],
            "name": "listPlayers",
            "outputs": [
                {
                    "internalType": "address[]",
                    "name": "",
                    "type": "address[]"
                }
            ],
            "stateMutability": "view",
            "type": "function"
        },
        {
            "inputs": [],
            "name": "owner",
            "outputs": [
                {
                    "internalType": "address",
                    "name": "",
                    "type": "address"
                }
            ],
            "stateMutability": "view",
            "type": "function"
        },
        {
            "inputs": [
                {
                    "internalType": "uint256",
                    "name": "tournamentId",
                    "type": "uint256"
                },
                {
                    "internalType": "address",
                    "name": "player",
                    "type": "address"
                },
                {
                    "internalType": "uint16",
                    "name": "score",
                    "type": "uint16"
                }
            ],
            "name": "recordScore",
            "outputs": [],
            "stateMutability": "nonpayable",
            "type": "function"
        }
    ],
    "bytecode": "0x6080604052348015600f57600080fd5b5033600260006101000a81548173ffffffffffffffffffffffffffffffffffffffff021916908373ffffffffffffffffffffffffffffffffffffffff1602179055506107c0806100606000396000f3fe608060405234801561001057600080fd5b506004361061004c5760003560e01c806307dd0a9c1461005157806380f2ff251461006d5780638da5cb5b1461009d578063ae530f9e146100bb575b600080fd5b61006b60048036038101906100669190610519565b6100eb565b005b6100876004803603810190610082919061056c565b610317565b60405161009491906105bb565b60405180910390f35b6100a561037f565b6040516100b291906105e5565b60405180910390f35b6100d560048036038101906100d09190610600565b6103a5565b6040516100e291906106eb565b60405180910390f35b600260009054906101000a900473ffffffffffffffffffffffffffffffffffffffff1673ffffffffffffffffffffffffffffffffffffffff163373ffffffffffffffffffffffffffffffffffffffff161461017b576040517f08c379a00000000000000000000000000000000000000000000000000000000081526004016101729061076a565b60405180910390fd5b600080600085815260200190815260200160002060008473ffffffffffffffffffffffffffffffffffffffff1673ffffffffffffffffffffffffffffffffffffffff16815260200190815260200160002060009054906101000a900461ffff1661ffff16036102595760016000848152602001908152602001600020829080600181540180825580915050600190039060005260206000200160009091909190916101000a81548173ffffffffffffffffffffffffffffffffffffffff021916908373ffffffffffffffffffffffffffffffffffffffff1602179055505b8060008085815260200190815260200160002060008473ffffffffffffffffffffffffffffffffffffffff1673ffffffffffffffffffffffffffffffffffffffff16815260200190815260200160002060006101000a81548161ffff021916908361ffff1602179055508173ffffffffffffffffffffffffffffffffffffffff16837f4d40a55671f06b2fdf1dde5d0f3c72eef5cd3cca07f00e4ece5a75ee5fb3e33c8360405161030a91906105bb565b60405180910390a3505050565b600080600084815260200190815260200160002060008373ffffffffffffffffffffffffffffffffffffffff1673ffffffffffffffffffffffffffffffffffffffff16815260200190815260200160002060009054906101000a900461ffff16905092915050565b600260009054906101000a900473ffffffffffffffffffffffffffffffffffffffff1681565b60606001600083815260200190815260200160002080548060200260200160405190810160405280929190818152602001828054801561043a57602002820191906000526020600020905b8160009054906101000a900473ffffffffffffffffffffffffffffffffffffffff1673ffffffffffffffffffffffffffffffffffffffff16815260200190600101908083116103f0575b50505050509050919050565b600080fd5b6000819050919050565b61045e8161044b565b811461046957600080fd5b50565b60008135905061047b81610455565b92915050565b600073ffffffffffffffffffffffffffffffffffffffff82169050919050565b60006104ac82610481565b9050919050565b6104bc816104a1565b81146104c757600080fd5b50565b6000813590506104d9816104b3565b92915050565b600061ffff82169050919050565b6104f6816104df565b811461050157600080fd5b50565b600081359050610513816104ed565b92915050565b60008060006060848603121561053257610531610446565b5b60006105408682870161046c565b9350506020610551868287016104ca565b925050604061056286828701610504565b9150509250925092565b6000806040838503121561058357610582610446565b5b60006105918582860161046c565b92505060206105a2858286016104ca565b9150509250929050565b6105b5816104df565b82525050565b60006020820190506105d060008301846105ac565b92915050565b6105df816104a1565b82525050565b60006020820190506105fa60008301846105d6565b92915050565b60006020828403121561061657610615610446565b5b60006106248482850161046c565b91505092915050565b600081519050919050565b600082825260208201905092915050565b6000819050602082019050919050565b610662816104a1565b82525050565b60006106748383610659565b60208301905092915050565b6000602082019050919050565b60006106988261062d565b6106a28185610638565b93506106ad83610649565b8060005b838110156106de5781516106c58882610668565b97506106d083610680565b9250506001810190506106b1565b5085935050505092915050565b60006020820190508181036000830152610705818461068d565b905092915050565b600082825260208201905092915050565b7f6e6f7420617574686f7269736564000000000000000000000000000000000000600082015250565b6000610754600e8361070d565b915061075f8261071e565b602082019050919050565b6000602082019050818103600083015261078381610747565b905091905056fea2646970667358221220700272d6b462820a0d26d22882ec279eead34b1a2e15f5e191671c73a7c7653164736f6c634300081c0033",
    "linkReferences": {},
    "deployedLinkReferences": {}
}